{"abi":[{"type":"constructor","inputs":[],"stateMutability":"nonpayable"},{"type":"function","name":"UPGRADE_INTERFACE_VERSION","inputs":[],"outputs":[{"name":"","type":"string","internalType":"string"}],"stateMutability":"view"},{"type":"function","name":"VERSION","inputs":[],"outputs":[{"name":"","type":"uint256","internalType":"uint256"}],"stateMutability":"view"},{"type":"function","name":"availableBalance","inputs":[{"name":"user","type":"address","internalType":"address"}],"outputs":[{"name":"","type":"uint256","internalType":"uint256"}],"stateMutability":"view"},{"type":"function","name":"balances","inputs":[{"name":"","type":"address","internalType":"address"}],"outputs":[{"name":"","type":"uint256","internalType":"uint256"}],"stateMutability":"view"},{"type":"function","name":"checkIn","inputs":[{"name":"taskId","type":"uint256","internalType":"uint256"}],"outputs":[],"stateMutability":"nonpayable"},{"type":"function","name":"checkInWithNFC","inputs":[{"name":"taskId","type":"uint256","internalType":"uint256"},{"name":"scannedTag","type":"bytes4","internalType":"bytes4"}],"outputs":[],"stateMutability":"nonpayable"},{"type":"function","name":"createSimpleTask","inputs":[{"name":"targetTime","type":"uint256","internalType":"uint256"},{"name":"window","type":"uint256","internalType":"uint256"},{"name":"penalty","type":"uint256","internalType":"uint256"}],"outputs":[{"name":"","type":"uint256","internalType":"uint256"}],"stateMutability":"nonpayable"},{"type":"function","name":"createTask","inputs":[{"name":"targetTime","type":"uint256","internalType":"uint256"},{"name":"window","type":"uint256","internalType":"uint256"},{"name":"penalty","type":"uint256","internalType":"uint256"},{"name":"mode","type":"uint8","internalType":"enum StudyStake.CheckInMode"},{"name":"tagId","type":"bytes4","internalType":"bytes4"}],"outputs":[{"name":"taskId","type":"uint256","internalType":"uint256"}],"stateMutability":"nonpayable"},{"type":"function","name":"deposit","inputs":[{"name":"amount","type":"uint256","internalType":"uint256"}],"outputs":[],"stateMutability":"nonpayable"},{"type":"function","name":"initialize","inputs":[{"name":"_usdc","type":"address","internalType":"address"},{"name":"_penaltyAddr","type":"address","internalType":"address"}],"outputs":[],"stateMutability":"nonpayable"},{"type":"function","name":"owner","inputs":[],"outputs":[{"name":"","type":"address","internalType":"address"}],"stateMutability":"view"},{"type":"function","name":"pause","inputs":[],"outputs":[],"stateMutability":"nonpayable"},{"type":"function","name":"paused","inputs":[],"outputs":[{"name":"","type":"bool","internalType":"bool"}],"stateMutability":"view"},{"type":"function","name":"penaltyReceiver","inputs":[],"outputs":[{"name":"","type":"address","internalType":"address"}],"stateMutability":"view"},{"type":"function","name":"proxiableUUID","inputs":[],"outputs":[{"name":"","type":"bytes32","internalType":"bytes32"}],"stateMutability":"view"},{"type":"function","name":"renounceOwnership","inputs":[],"outputs":[],"stateMutability":"nonpayable"},{"type":"function","name":"setPenaltyReceiver","inputs":[{"name":"_receiver","type":"address","internalType":"address"}],"outputs":[],"stateMutability":"nonpayable"},{"type":"function","name":"slash","inputs":[{"name":"user","type":"address","internalType":"address"},{"name":"taskId","type":"uint256","internalType":"uint256"}],"outputs":[],"stateMutability":"nonpayable"},{"type":"function","name":"taskCount","inputs":[{"name":"","type":"address","internalType":"address"}],"outputs":[{"name":"","type":"uint256","internalType":"uint256"}],"stateMutability":"view"},{"type":"function","name":"tasks","inputs":[{"name":"","type":"address","internalType":"address"},{"name":"","type":"uint256","internalType":"uint256"}],"outputs":[{"name":"id","type":"uint256","internalType":"uint256"},{"name":"user","type":"address","internalType":"address"},{"name":"targetTime","type":"uint256","internalType":"uint256"},{"name":"window","type":"uint256","internalType":"uint256"},{"name":"penalty","type":"uint256","internalType":"uint256"},{"name":"mode","type":"uint8","internalType":"enum StudyStake.CheckInMode"},{"name":"allowedTag","type":"bytes4","internalType":"bytes4"},{"name":"status","type":"uint8","internalType":"enum StudyStake.TaskStatus"}],"stateMutability":"view"},{"type":"function","name":"transferOwnership","inputs":[{"name":"newOwner","type":"address","internalType":"address"}],"outputs":[],"stateMutability":"nonpayable"},{"type":"function","name":"unpause","inputs":[],"outputs":[],"stateMutability":"nonpayable"},{"type":"function","name":"upgradeToAndCall","inputs":[{"name":"newImplementation","type":"address","internalType":"address"},{"name":"data","type":"bytes","internalType":"bytes"}],"outputs":[],"stateMutability":"payable"},{"type":"function","name":"usdc","inputs":[],"outputs":[{"name":"","type":"address","internalType":"contract IERC20"}],"stateMutability":"view"},{"type":"function","name":"withdraw","inputs":[{"name":"amount","type":"uint256","internalType":"uint256"}],"outputs":[],"stateMutability":"nonpayable"},{"type":"event","name":"CheckedIn","inputs":[{"name":"taskId","type":"uint256","indexed":true,"internalType":"uint256"},{"name":"user","type":"address","indexed":true,"internalType":"address"},{"name":"mode","type":"uint8","indexed":false,"internalType":"enum StudyStake.CheckInMode"}],"anonymous":false},{"type":"event","name":"CheckedInWithNFC","inputs":[{"name":"taskId","type":"uint256","indexed":true,"internalType":"uint256"},{"name":"user","type":"address","indexed":true,"internalType":"address"},{"name":"tagScanned","type":"bytes4","indexed":false,"internalType":"bytes4"}],"anonymous":false},{"type":"event","name":"Deposited","inputs":[{"name":"user","type":"address","indexed":true,"internalType":"address"},{"name":"amount","type":"uint256","indexed":false,"internalType":"uint256"}],"anonymous":false},{"type":"event","name":"Initialized","inputs":[{"name":"version","type":"uint64","indexed":false,"internalType":"uint64"}],"anonymous":false},{"type":"event","name":"OwnershipTransferred","inputs":[{"name":"previousOwner","type":"address","indexed":true,"internalType":"address"},{"name":"newOwner","type":"address","indexed":true,"internalType":"address"}],"anonymous":false},{"type":"event","name":"Paused","inputs":[{"name":"account","type":"address","indexed":false,"internalType":"address"}],"anonymous":false},{"type":"event","name":"PenaltyReceiverUpdated","inputs":[{"name":"oldReceiver","type":"address","indexed":true,"internalType":"address"},{"name":"newReceiver","type":"address","indexed":true,"internalType":"address"}],"anonymous":false},{"type":"event","name":"Slashed","inputs":[{"name":"taskId","type":"uint256","indexed":true,"internalType":"uint256"},{"name":"user","type":"address","indexed":true,"internalType":"address"},{"name":"penalty","type":"uint256","indexed":false,"internalType":"uint256"}],"anonymous":false},{"type":"event","name":"TaskCreated","inputs":[{"name":"taskId","type":"uint256","indexed":true,"internalType":"uint256"},{"name":"user","type":"address","indexed":true,"internalType":"address"},{"name":"targetTime","type":"uint256","indexed":false,"internalType":"uint256"},{"name":"window","type":"uint256","indexed":false,"internalType":"uint256"},{"name":"penalty","type":"uint256","indexed":false,"internalType":"uint256"},{"name":"mode","type":"uint8","indexed":false,"internalType":"enum StudyStake.CheckInMode"},{"name":"allowedTag","type":"bytes4","indexed":false,"internalType":"bytes4"}],"anonymous":false},{"type":"event","name":"Unpaused","inputs":[{"name":"account","type":"address","indexed":false,"internalType":"address"}],"anonymous":false},{"type":"event","name":"Upgraded","inputs":[{"name":"implementation","type":"address","indexed":true,"internalType":"address"}],"anonymous":false},{"type":"event","name":"Withdrawn","inputs":[{"name":"user","type":"address","indexed":true,"internalType":"address"},{"name":"amount","type":"uint256","indexed":false,"internalType":"uint256"}],"anonymous":false},{"type":"error","name":"AddressEmptyCode","inputs":[{"name":"target","type":"address","internalType":"address"}]},{"type":"error","name":"ERC1967InvalidImplementation","inputs":[{"name":"implementation","type":"address","internalType":"address"}]},{"type":"error","name":"ERC1967NonPayable","inputs":[]},{"type":"error","name":"EnforcedPause","inputs":[]},{"type":"error","name":"ExpectedPause","inputs":[]},{"type":"error","name":"FailedCall","inputs":[]},{"type":"error","name":"InvalidInitialization","inputs":[]},{"type":"error","name":"NotInitializing","inputs":[]},{"type":"error","name":"OwnableInvalidOwner","inputs":[{"name":"owner","type":"address","internalType":"address"}]},{"type":"error","name":"OwnableUnauthorizedAccount","inputs":[{"name":"account","type":"address","internalType":"address"}]},{"type":"error","name":"UUPSUnauthorizedCallContext","inputs":[]},{"type":"error","name":"UUPSUnsupportedProxiableUUID","inputs":[{"name":"slot","type":"bytes32","internalType":"bytes32"}]}],"bytecode":{"object":"0x60a06040523073ffffffffffffffffffffffffffffffffffffffff1660809073ffffffffffffffffffffffffffffffffffffffff16815250348015610042575f5ffd5b5061005161005660201b60201c565b6101d1565b5f61006561015460201b60201c565b9050805f0160089054906101000a900460ff16156100af576040517ff92ee8a900000000000000000000000000000000000000000000000000000000815260040160405180910390fd5b67ffffffffffffffff8016815f015f9054906101000a900467ffffffffffffffff1667ffffffffffffffff16146101515767ffffffffffffffff815f015f6101000a81548167ffffffffffffffff021916908367ffffffffffffffff1602179055507fc7f505b2f371ae2175ee4913f4499e1f2633a7b5936321eed1cdaeb6115181d267ffffffffffffffff60405161014891906101b8565b60405180910390a15b50565b5f5f61016461016d60201b60201c565b90508091505090565b5f7ff0c57e16840df040f15088dc2f81fe391c3923bec73e23a9662efc9c229c6a005f1b905090565b5f67ffffffffffffffff82169050919050565b6101b281610196565b82525050565b5f6020820190506101cb5f8301846101a9565b92915050565b608051613c726101f75f395f81816121fc01528181612251015261240b0152613c725ff3fe608060405260043610610165575f3560e01c80637149d2e4116100d0578063b6b55f2511610089578063f0e5929111610063578063f0e59291146104e6578063f10fbe331461050e578063f2fde38b1461054a578063ffa1ad741461057257610165565b8063b6b55f251461046c578063e1b7fd4214610494578063e95a644f146104be57610165565b80637149d2e41461036d578063715018a6146103b05780638456cb59146103c65780638da5cb5b146103dc578063a0821be314610406578063ad3cb1cc1461044257610165565b80633e413bee116101225780633e413bee146102955780633f4ba83a146102bf578063485cc955146102d55780634f1ef286146102fd57806352d1902d146103195780635c975abb1461034357610165565b806302fb4d8514610169578063082d1abb1461019157806321a15057146101cd57806327e235e3146101f55780632e1a7d4d146102315780633b080d2214610259575b5f5ffd5b348015610174575f5ffd5b5061018f600480360381019061018a9190612b15565b61059c565b005b34801561019c575f5ffd5b506101b760048036038101906101b29190612b53565b61089f565b6040516101c49190612b8d565b60405180910390f35b3480156101d8575f5ffd5b506101f360048036038101906101ee9190612bfb565b6108b4565b005b348015610200575f5ffd5b5061021b60048036038101906102169190612b53565b610ba4565b6040516102289190612b8d565b60405180910390f35b34801561023c575f5ffd5b5061025760048036038101906102529190612c39565b610bb9565b005b348015610264575f5ffd5b5061027f600480360381019061027a9190612c87565b610e9e565b60405161028c9190612b8d565b60405180910390f35b3480156102a0575f5ffd5b506102a9610ebf565b6040516102b69190612d59565b60405180910390f35b3480156102ca575f5ffd5b506102d3610ee3565b005b3480156102e0575f5ffd5b506102fb60048036038101906102f69190612d72565b610ef5565b005b61031760048036038101906103129190612eec565b611188565b005b348015610324575f5ffd5b5061032d6111a7565b60405161033a9190612f5e565b60405180910390f35b34801561034e575f5ffd5b506103576111d8565b6040516103649190612f91565b60405180910390f35b348015610378575f5ffd5b50610393600480360381019061038e9190612b15565b6111fa565b6040516103a7989796959493929190613081565b60405180910390f35b3480156103bb575f5ffd5b506103c461128e565b005b3480156103d1575f5ffd5b506103da6112a1565b005b3480156103e7575f5ffd5b506103f06112b3565b6040516103fd91906130fd565b60405180910390f35b348015610411575f5ffd5b5061042c60048036038101906104279190612b53565b6112e8565b6040516104399190612b8d565b60405180910390f35b34801561044d575f5ffd5b50610456611391565b6040516104639190613176565b60405180910390f35b348015610477575f5ffd5b50610492600480360381019061048d9190612c39565b6113ca565b005b34801561049f575f5ffd5b506104a8611599565b6040516104b591906130fd565b60405180910390f35b3480156104c9575f5ffd5b506104e460048036038101906104df9190612c39565b6115be565b005b3480156104f1575f5ffd5b5061050c60048036038101906105079190612b53565b61181c565b005b348015610519575f5ffd5b50610534600480360381019061052f9190613196565b611950565b6040516105419190612b8d565b60405180910390f35b348015610555575f5ffd5b50610570600480360381019061056b9190612b53565b61196a565b005b34801561057d575f5ffd5b506105866119ee565b6040516105939190612b8d565b60405180910390f35b6105a46119f3565b5f60045f8473ffffffffffffffffffffffffffffffffffffffff1673ffffffffffffffffffffffffffffffffffffffff1681526020019081526020015f205f8381526020019081526020015f2090505f600281111561060657610605612fb9565b5b8160050160059054906101000a900460ff16600281111561062a57610629612fb9565b5b1461066a576040517f08c379a000000000000000000000000000000000000000000000000000000000815260040161066190613230565b60405180910390fd5b8060030154816002015461067e919061327b565b42116106bf576040517f08c379a00000000000000000000000000000000000000000000000000000000081526004016106b6906132f8565b60405180910390fd5b60028160050160056101000a81548160ff021916908360028111156106e7576106e6612fb9565b5b0217905550806004015460025f8573ffffffffffffffffffffffffffffffffffffffff1673ffffffffffffffffffffffffffffffffffffffff1681526020019081526020015f205f82825461073c9190613316565b925050819055505f5f5f9054906101000a900473ffffffffffffffffffffffffffffffffffffffff1673ffffffffffffffffffffffffffffffffffffffff1663a9059cbb60015f9054906101000a900473ffffffffffffffffffffffffffffffffffffffff1684600401546040518363ffffffff1660e01b81526004016107c4929190613349565b6020604051808303815f875af11580156107e0573d5f5f3e3d5ffd5b505050506040513d601f19601f82011682018060405250810190610804919061339a565b905080610846576040517f08c379a000000000000000000000000000000000000000000000000000000000815260040161083d9061340f565b60405180910390fd5b8373ffffffffffffffffffffffffffffffffffffffff16837f0ebf205de0d16b8c4e99b7cd8c52f0e40c86547ecda94f93c3fcf75fd040846384600401546040516108919190612b8d565b60405180910390a350505050565b6003602052805f5260405f205f915090505481565b6108bc6119f3565b5f60045f3373ffffffffffffffffffffffffffffffffffffffff1673ffffffffffffffffffffffffffffffffffffffff1681526020019081526020015f205f8481526020019081526020015f2090503373ffffffffffffffffffffffffffffffffffffffff16816001015f9054906101000a900473ffffffffffffffffffffffffffffffffffffffff1673ffffffffffffffffffffffffffffffffffffffff161461099c576040517f08c379a000000000000000000000000000000000000000000000000000000000815260040161099390613477565b60405180910390fd5b5f60028111156109af576109ae612fb9565b5b8160050160059054906101000a900460ff1660028111156109d3576109d2612fb9565b5b14610a13576040517f08c379a0000000000000000000000000000000000000000000000000000000008152600401610a0a90613230565b60405180910390fd5b600180811115610a2657610a25612fb9565b5b816005015f9054906101000a900460ff166001811115610a4957610a48612fb9565b5b14610a89576040517f08c379a0000000000000000000000000000000000000000000000000000000008152600401610a80906134df565b60405180910390fd5b8060050160019054906101000a900460e01b7bffffffffffffffffffffffffffffffffffffffffffffffffffffffff1916827bffffffffffffffffffffffffffffffffffffffffffffffffffffffff191614610b1a576040517f08c379a0000000000000000000000000000000000000000000000000000000008152600401610b1190613547565b60405180910390fd5b610b2381611a34565b60018160050160056101000a81548160ff02191690836002811115610b4b57610b4a612fb9565b5b02179055503373ffffffffffffffffffffffffffffffffffffffff16837fe1f4be04199d496c0610f81e5eed7fcaf22676c0adc5a5aafd1e9b068873a13784604051610b979190613565565b60405180910390a3505050565b6002602052805f5260405f205f915090505481565b610bc16119f3565b5f8111610c03576040517f08c379a0000000000000000000000000000000000000000000000000000000008152600401610bfa906135c8565b60405180910390fd5b8060025f3373ffffffffffffffffffffffffffffffffffffffff1673ffffffffffffffffffffffffffffffffffffffff1681526020019081526020015f20541015610c83576040517f08c379a0000000000000000000000000000000000000000000000000000000008152600401610c7a90613630565b60405180910390fd5b5f610c8d33611ad9565b9050818160025f3373ffffffffffffffffffffffffffffffffffffffff1673ffffffffffffffffffffffffffffffffffffffff1681526020019081526020015f2054610cd99190613316565b1015610d1a576040517f08c379a0000000000000000000000000000000000000000000000000000000008152600401610d1190613698565b60405180910390fd5b8160025f3373ffffffffffffffffffffffffffffffffffffffff1673ffffffffffffffffffffffffffffffffffffffff1681526020019081526020015f205f828254610d669190613316565b925050819055505f5f5f9054906101000a900473ffffffffffffffffffffffffffffffffffffffff1673ffffffffffffffffffffffffffffffffffffffff1663a9059cbb33856040518363ffffffff1660e01b8152600401610dc9929190613349565b6020604051808303815f875af1158015610de5573d5f5f3e3d5ffd5b505050506040513d601f19601f82011682018060405250810190610e09919061339a565b905080610e4b576040517f08c379a0000000000000000000000000000000000000000000000000000000008152600401610e429061340f565b60405180910390fd5b3373ffffffffffffffffffffffffffffffffffffffff167f7084f5476618d8e60b11ef0d7d3f06914655adb8793e28ff7f018d4c76d505d584604051610e919190612b8d565b60405180910390a2505050565b5f610ea76119f3565b610eb48686868686611c27565b905095945050505050565b5f5f9054906101000a900473ffffffffffffffffffffffffffffffffffffffff1681565b610eeb6120d4565b610ef361215b565b565b60015f610f006121c9565b9050805f0160089054906101000a900460ff1680610f4857508167ffffffffffffffff16815f015f9054906101000a900467ffffffffffffffff1667ffffffffffffffff1610155b15610f7f576040517ff92ee8a900000000000000000000000000000000000000000000000000000000815260040160405180910390fd5b81815f015f6101000a81548167ffffffffffffffff021916908367ffffffffffffffff1602179055506001815f0160086101000a81548160ff021916908315150217905550610fcd336121dc565b610fd56121f0565b5f73ffffffffffffffffffffffffffffffffffffffff168473ffffffffffffffffffffffffffffffffffffffff1603611043576040517f08c379a000000000000000000000000000000000000000000000000000000000815260040161103a90613700565b60405180910390fd5b5f73ffffffffffffffffffffffffffffffffffffffff168373ffffffffffffffffffffffffffffffffffffffff16036110b1576040517f08c379a00000000000000000000000000000000000000000000000000000000081526004016110a890613768565b60405180910390fd5b835f5f6101000a81548173ffffffffffffffffffffffffffffffffffffffff021916908373ffffffffffffffffffffffffffffffffffffffff1602179055508260015f6101000a81548173ffffffffffffffffffffffffffffffffffffffff021916908373ffffffffffffffffffffffffffffffffffffffff1602179055505f815f0160086101000a81548160ff0219169083151502179055507fc7f505b2f371ae2175ee4913f4499e1f2633a7b5936321eed1cdaeb6115181d28260405161117a91906137a8565b60405180910390a150505050565b6111906121fa565b611199826122e0565b6111a382826122eb565b5050565b5f6111b0612409565b7f360894a13ba1a3210667c828492db98dca3e2076cc3735a920a3ca505d382bbc5f1b905090565b5f5f6111e2612490565b9050805f015f9054906101000a900460ff1691505090565b6004602052815f5260405f20602052805f5260405f205f9150915050805f015490806001015f9054906101000a900473ffffffffffffffffffffffffffffffffffffffff1690806002015490806003015490806004015490806005015f9054906101000a900460ff16908060050160019054906101000a900460e01b908060050160059054906101000a900460ff16905088565b6112966120d4565b61129f5f6124b7565b565b6112a96120d4565b6112b1612588565b565b5f5f6112bd6125f7565b9050805f015f9054906101000a900473ffffffffffffffffffffffffffffffffffffffff1691505090565b5f5f6112f383611ad9565b90508060025f8573ffffffffffffffffffffffffffffffffffffffff1673ffffffffffffffffffffffffffffffffffffffff1681526020019081526020015f20541161133f575f611389565b8060025f8573ffffffffffffffffffffffffffffffffffffffff1673ffffffffffffffffffffffffffffffffffffffff1681526020019081526020015f20546113889190613316565b5b915050919050565b6040518060400160405280600581526020017f352e302e3000000000000000000000000000000000000000000000000000000081525081565b6113d26119f3565b5f8111611414576040517f08c379a000000000000000000000000000000000000000000000000000000000815260040161140b906135c8565b60405180910390fd5b5f5f5f9054906101000a900473ffffffffffffffffffffffffffffffffffffffff1673ffffffffffffffffffffffffffffffffffffffff166323b872dd3330856040518463ffffffff1660e01b8152600401611472939291906137c1565b6020604051808303815f875af115801561148e573d5f5f3e3d5ffd5b505050506040513d601f19601f820116820180604052508101906114b2919061339a565b9050806114f4576040517f08c379a00000000000000000000000000000000000000000000000000000000081526004016114eb9061340f565b60405180910390fd5b8160025f3373ffffffffffffffffffffffffffffffffffffffff1673ffffffffffffffffffffffffffffffffffffffff1681526020019081526020015f205f828254611540919061327b565b925050819055503373ffffffffffffffffffffffffffffffffffffffff167f2da466a7b24304f47e87fa2e1e5a81b9831ce54fec19055ce277ca2f39ba42c48360405161158d9190612b8d565b60405180910390a25050565b60015f9054906101000a900473ffffffffffffffffffffffffffffffffffffffff1681565b6115c66119f3565b5f60045f3373ffffffffffffffffffffffffffffffffffffffff1673ffffffffffffffffffffffffffffffffffffffff1681526020019081526020015f205f8381526020019081526020015f2090503373ffffffffffffffffffffffffffffffffffffffff16816001015f9054906101000a900473ffffffffffffffffffffffffffffffffffffffff1673ffffffffffffffffffffffffffffffffffffffff16146116a6576040517f08c379a000000000000000000000000000000000000000000000000000000000815260040161169d90613477565b60405180910390fd5b5f60028111156116b9576116b8612fb9565b5b8160050160059054906101000a900460ff1660028111156116dd576116dc612fb9565b5b1461171d576040517f08c379a000000000000000000000000000000000000000000000000000000000815260040161171490613230565b60405180910390fd5b5f60018111156117305761172f612fb9565b5b816005015f9054906101000a900460ff16600181111561175357611752612fb9565b5b14611793576040517f08c379a000000000000000000000000000000000000000000000000000000000815260040161178a90613840565b60405180910390fd5b61179c81611a34565b60018160050160056101000a81548160ff021916908360028111156117c4576117c3612fb9565b5b02179055503373ffffffffffffffffffffffffffffffffffffffff16827fe83611fc8fd9645b0647eaf8e9172131e4fdb3aa6865fe86d9c90d984f7b9cb45f604051611810919061385e565b60405180910390a35050565b6118246120d4565b5f73ffffffffffffffffffffffffffffffffffffffff168173ffffffffffffffffffffffffffffffffffffffff1603611892576040517f08c379a000000000000000000000000000000000000000000000000000000000815260040161188990613768565b60405180910390fd5b8073ffffffffffffffffffffffffffffffffffffffff1660015f9054906101000a900473ffffffffffffffffffffffffffffffffffffffff1673ffffffffffffffffffffffffffffffffffffffff167f4a953288e328634750612c718ffc023ee8db3c4e7a251d683b07ccc4d89fd2f760405160405180910390a38060015f6101000a81548173ffffffffffffffffffffffffffffffffffffffff021916908373ffffffffffffffffffffffffffffffffffffffff16021790555050565b5f6119618484845f5f60e01b611c27565b90509392505050565b6119726120d4565b5f73ffffffffffffffffffffffffffffffffffffffff168173ffffffffffffffffffffffffffffffffffffffff16036119e2575f6040517f1e4fbdf70000000000000000000000000000000000000000000000000000000081526004016119d991906130fd565b60405180910390fd5b6119eb816124b7565b50565b600181565b6119fb6111d8565b15611a32576040517fd93c066500000000000000000000000000000000000000000000000000000000815260040160405180910390fd5b565b5f81600301548260020154611a49919061327b565b90508160020154421015611a92576040517f08c379a0000000000000000000000000000000000000000000000000000000008152600401611a89906138c1565b60405180910390fd5b80421115611ad5576040517f08c379a0000000000000000000000000000000000000000000000000000000008152600401611acc90613929565b60405180910390fd5b5050565b5f5f60035f8473ffffffffffffffffffffffffffffffffffffffff1673ffffffffffffffffffffffffffffffffffffffff1681526020019081526020015f205490505f600190505b818111611c20575f6002811115611b3b57611b3a612fb9565b5b60045f8673ffffffffffffffffffffffffffffffffffffffff1673ffffffffffffffffffffffffffffffffffffffff1681526020019081526020015f205f8381526020019081526020015f2060050160059054906101000a900460ff166002811115611baa57611ba9612fb9565b5b03611c0d5760045f8573ffffffffffffffffffffffffffffffffffffffff1673ffffffffffffffffffffffffffffffffffffffff1681526020019081526020015f205f8281526020019081526020015f206004015483611c0a919061327b565b92505b8080611c1890613947565b915050611b21565b5050919050565b5f428611611c6a576040517f08c379a0000000000000000000000000000000000000000000000000000000008152600401611c61906139d8565b60405180910390fd5b5f8511611cac576040517f08c379a0000000000000000000000000000000000000000000000000000000008152600401611ca390613a40565b60405180910390fd5b5f8411611cee576040517f08c379a0000000000000000000000000000000000000000000000000000000008152600401611ce590613aa8565b60405180910390fd5b611cf733611ad9565b84611d02919061327b565b60025f3373ffffffffffffffffffffffffffffffffffffffff1673ffffffffffffffffffffffffffffffffffffffff1681526020019081526020015f20541015611d81576040517f08c379a0000000000000000000000000000000000000000000000000000000008152600401611d7890613b10565b60405180910390fd5b600180811115611d9457611d93612fb9565b5b836001811115611da757611da6612fb9565b5b03611e34575f60e01b7bffffffffffffffffffffffffffffffffffffffffffffffffffffffff1916827bffffffffffffffffffffffffffffffffffffffffffffffffffffffff191603611e2f576040517f08c379a0000000000000000000000000000000000000000000000000000000008152600401611e2690613b78565b60405180910390fd5b611e3b565b5f60e01b91505b60055f8154611e4990613947565b91905081905590506040518061010001604052808281526020013373ffffffffffffffffffffffffffffffffffffffff168152602001878152602001868152602001858152602001846001811115611ea457611ea3612fb9565b5b8152602001837bffffffffffffffffffffffffffffffffffffffffffffffffffffffff191681526020015f6002811115611ee157611ee0612fb9565b5b81525060045f3373ffffffffffffffffffffffffffffffffffffffff1673ffffffffffffffffffffffffffffffffffffffff1681526020019081526020015f205f8381526020019081526020015f205f820151815f01556020820151816001015f6101000a81548173ffffffffffffffffffffffffffffffffffffffff021916908373ffffffffffffffffffffffffffffffffffffffff16021790555060408201518160020155606082015181600301556080820151816004015560a0820151816005015f6101000a81548160ff02191690836001811115611fc657611fc5612fb9565b5b021790555060c08201518160050160016101000a81548163ffffffff021916908360e01c021790555060e08201518160050160056101000a81548160ff0219169083600281111561201a57612019612fb9565b5b021790555090505060035f3373ffffffffffffffffffffffffffffffffffffffff1673ffffffffffffffffffffffffffffffffffffffff1681526020019081526020015f205f81548092919061206f90613947565b91905055503373ffffffffffffffffffffffffffffffffffffffff16817f5ad704b26ef82c3a7250e87d92e0b97a3138672f0fa5db6f62bf940e53969db188888888886040516120c3959493929190613b96565b60405180910390a395945050505050565b6120dc61261e565b73ffffffffffffffffffffffffffffffffffffffff166120fa6112b3565b73ffffffffffffffffffffffffffffffffffffffff16146121595761211d61261e565b6040517f118cdaa700000000000000000000000000000000000000000000000000000000815260040161215091906130fd565b60405180910390fd5b565b612163612625565b5f61216c612490565b90505f815f015f6101000a81548160ff0219169083151502179055507f5db9ee0a495bf2e6ff9c91a7834c1ba4fdd244a5e8aa4e537bd38aeae4b073aa6121b161261e565b6040516121be91906130fd565b60405180910390a150565b5f5f6121d3612665565b90508091505090565b6121e461268e565b6121ed816126ce565b50565b6121f861268e565b565b7f000000000000000000000000000000000000000000000000000000000000000073ffffffffffffffffffffffffffffffffffffffff163073ffffffffffffffffffffffffffffffffffffffff1614806122a757507f000000000000000000000000000000000000000000000000000000000000000073ffffffffffffffffffffffffffffffffffffffff1661228e612752565b73ffffffffffffffffffffffffffffffffffffffff1614155b156122de576040517fe07c8dba00000000000000000000000000000000000000000000000000000000815260040160405180910390fd5b565b6122e86120d4565b50565b8173ffffffffffffffffffffffffffffffffffffffff166352d1902d6040518163ffffffff1660e01b8152600401602060405180830381865afa92505050801561235357506040513d601f19601f820116820180604052508101906123509190613c11565b60015b61239457816040517f4c9c8ce300000000000000000000000000000000000000000000000000000000815260040161238b91906130fd565b60405180910390fd5b7f360894a13ba1a3210667c828492db98dca3e2076cc3735a920a3ca505d382bbc5f1b81146123fa57806040517faa1d49a40000000000000000000000000000000000000000000000000000000081526004016123f19190612f5e565b60405180910390fd5b61240483836127a5565b505050565b7f000000000000000000000000000000000000000000000000000000000000000073ffffffffffffffffffffffffffffffffffffffff163073ffffffffffffffffffffffffffffffffffffffff161461248e576040517fe07c8dba00000000000000000000000000000000000000000000000000000000815260040160405180910390fd5b565b5f7fcd5ed15c6e187e77e9aee88184c21f4f2182ab5827cb3b7e07fbedcd63f03300905090565b5f6124c06125f7565b90505f815f015f9054906101000a900473ffffffffffffffffffffffffffffffffffffffff16905082825f015f6101000a81548173ffffffffffffffffffffffffffffffffffffffff021916908373ffffffffffffffffffffffffffffffffffffffff1602179055508273ffffffffffffffffffffffffffffffffffffffff168173ffffffffffffffffffffffffffffffffffffffff167f8be0079c531659141344cd1fd0a4f28419497f9722a3daafe3b4186f6b6457e060405160405180910390a3505050565b6125906119f3565b5f612599612490565b90506001815f015f6101000a81548160ff0219169083151502179055507f62e78cea01bee320cd4e420270b5ea74000d11b0c9f74754ebdbfc544b05a2586125df61261e565b6040516125ec91906130fd565b60405180910390a150565b5f7f9016d09d72d40fdae2fd8ceac6b6234c7706214fd39c1cd1e609a0528c199300905090565b5f33905090565b61262d6111d8565b612663576040517f8dfc202b00000000000000000000000000000000000000000000000000000000815260040160405180910390fd5b565b5f7ff0c57e16840df040f15088dc2f81fe391c3923bec73e23a9662efc9c229c6a005f1b905090565b612696612817565b6126cc576040517fd7e6bcf800000000000000000000000000000000000000000000000000000000815260040160405180910390fd5b565b6126d661268e565b5f73ffffffffffffffffffffffffffffffffffffffff168173ffffffffffffffffffffffffffffffffffffffff1603612746575f6040517f1e4fbdf700000000000000000000000000000000000000000000000000000000815260040161273d91906130fd565b60405180910390fd5b61274f816124b7565b50565b5f61277e7f360894a13ba1a3210667c828492db98dca3e2076cc3735a920a3ca505d382bbc5f1b612835565b5f015f9054906101000a900473ffffffffffffffffffffffffffffffffffffffff16905090565b6127ae8261283e565b8173ffffffffffffffffffffffffffffffffffffffff167fbc7cd75a20ee27fd9adebab32041f755214dbc6bffa90cc0225b39da2e5c2d3b60405160405180910390a25f8151111561280a576128048282612907565b50612813565b6128126129f8565b5b5050565b5f6128206121c9565b5f0160089054906101000a900460ff16905090565b5f819050919050565b5f8173ffffffffffffffffffffffffffffffffffffffff163b0361289957806040517f4c9c8ce300000000000000000000000000000000000000000000000000000000815260040161289091906130fd565b60405180910390fd5b806128c57f360894a13ba1a3210667c828492db98dca3e2076cc3735a920a3ca505d382bbc5f1b612835565b5f015f6101000a81548173ffffffffffffffffffffffffffffffffffffffff021916908373ffffffffffffffffffffffffffffffffffffffff16021790555050565b60605f6129148484612a34565b905080801561294a57505f612927612a48565b118061294957505f8473ffffffffffffffffffffffffffffffffffffffff163b115b5b1561295f57612957612a4f565b9150506129f2565b80156129a257836040517f9996b31500000000000000000000000000000000000000000000000000000000815260040161299991906130fd565b60405180910390fd5b5f6129ab612a48565b11156129be576129b9612a6c565b6129f0565b6040517fd6bda27500000000000000000000000000000000000000000000000000000000815260040160405180910390fd5b505b92915050565b5f341115612a32576040517fb398979f00000000000000000000000000000000000000000000000000000000815260040160405180910390fd5b565b5f5f5f835160208501865af4905092915050565b5f3d905090565b606060405190503d81523d5f602083013e3d602001810160405290565b6040513d5f823e3d81fd5b5f604051905090565b5f5ffd5b5f5ffd5b5f73ffffffffffffffffffffffffffffffffffffffff82169050919050565b5f612ab182612a88565b9050919050565b612ac181612aa7565b8114612acb575f5ffd5b50565b5f81359050612adc81612ab8565b92915050565b5f819050919050565b612af481612ae2565b8114612afe575f5ffd5b50565b5f81359050612b0f81612aeb565b92915050565b5f5f60408385031215612b2b57612b2a612a80565b5b5f612b3885828601612ace565b9250506020612b4985828601612b01565b9150509250929050565b5f60208284031215612b6857612b67612a80565b5b5f612b7584828501612ace565b91505092915050565b612b8781612ae2565b82525050565b5f602082019050612ba05f830184612b7e565b92915050565b5f7fffffffff0000000000000000000000000000000000000000000000000000000082169050919050565b612bda81612ba6565b8114612be4575f5ffd5b50565b5f81359050612bf581612bd1565b92915050565b5f5f60408385031215612c1157612c10612a80565b5b5f612c1e85828601612b01565b9250506020612c2f85828601612be7565b9150509250929050565b5f60208284031215612c4e57612c4d612a80565b5b5f612c5b84828501612b01565b91505092915050565b60028110612c70575f5ffd5b50565b5f81359050612c8181612c64565b92915050565b5f5f5f5f5f60a08688031215612ca057612c9f612a80565b5b5f612cad88828901612b01565b9550506020612cbe88828901612b01565b9450506040612ccf88828901612b01565b9350506060612ce088828901612c73565b9250506080612cf188828901612be7565b9150509295509295909350565b5f819050919050565b5f612d21612d1c612d1784612a88565b612cfe565b612a88565b9050919050565b5f612d3282612d07565b9050919050565b5f612d4382612d28565b9050919050565b612d5381612d39565b82525050565b5f602082019050612d6c5f830184612d4a565b92915050565b5f5f60408385031215612d8857612d87612a80565b5b5f612d9585828601612ace565b9250506020612da685828601612ace565b9150509250929050565b5f5ffd5b5f5ffd5b5f601f19601f8301169050919050565b7f4e487b71000000000000000000000000000000000000000000000000000000005f52604160045260245ffd5b612dfe82612db8565b810181811067ffffffffffffffff82111715612e1d57612e1c612dc8565b5b80604052505050565b5f612e2f612a77565b9050612e3b8282612df5565b919050565b5f67ffffffffffffffff821115612e5a57612e59612dc8565b5b612e6382612db8565b9050602081019050919050565b828183375f83830152505050565b5f612e90612e8b84612e40565b612e26565b905082815260208101848484011115612eac57612eab612db4565b5b612eb7848285612e70565b509392505050565b5f82601f830112612ed357612ed2612db0565b5b8135612ee3848260208601612e7e565b91505092915050565b5f5f60408385031215612f0257612f01612a80565b5b5f612f0f85828601612ace565b925050602083013567ffffffffffffffff811115612f3057612f2f612a84565b5b612f3c85828601612ebf565b9150509250929050565b5f819050919050565b612f5881612f46565b82525050565b5f602082019050612f715f830184612f4f565b92915050565b5f8115159050919050565b612f8b81612f77565b82525050565b5f602082019050612fa45f830184612f82565b92915050565b612fb381612aa7565b82525050565b7f4e487b71000000000000000000000000000000000000000000000000000000005f52602160045260245ffd5b60028110612ff757612ff6612fb9565b5b50565b5f81905061300782612fe6565b919050565b5f61301682612ffa565b9050919050565b6130268161300c565b82525050565b61303581612ba6565b82525050565b6003811061304c5761304b612fb9565b5b50565b5f81905061305c8261303b565b919050565b5f61306b8261304f565b9050919050565b61307b81613061565b82525050565b5f610100820190506130955f83018b612b7e565b6130a2602083018a612faa565b6130af6040830189612b7e565b6130bc6060830188612b7e565b6130c96080830187612b7e565b6130d660a083018661301d565b6130e360c083018561302c565b6130f060e0830184613072565b9998505050505050505050565b5f6020820190506131105f830184612faa565b92915050565b5f81519050919050565b5f82825260208201905092915050565b8281835e5f83830152505050565b5f61314882613116565b6131528185613120565b9350613162818560208601613130565b61316b81612db8565b840191505092915050565b5f6020820190508181035f83015261318e818461313e565b905092915050565b5f5f5f606084860312156131ad576131ac612a80565b5b5f6131ba86828701612b01565b93505060206131cb86828701612b01565b92505060406131dc86828701612b01565b9150509250925092565b7f5461736b206e6f742061637469766500000000000000000000000000000000005f82015250565b5f61321a600f83613120565b9150613225826131e6565b602082019050919050565b5f6020820190508181035f8301526132478161320e565b9050919050565b7f4e487b71000000000000000000000000000000000000000000000000000000005f52601160045260245ffd5b5f61328582612ae2565b915061329083612ae2565b92508282019050808211156132a8576132a761324e565b5b92915050565b7f5374696c6c2077697468696e2077696e646f77000000000000000000000000005f82015250565b5f6132e2601383613120565b91506132ed826132ae565b602082019050919050565b5f6020820190508181035f83015261330f816132d6565b9050919050565b5f61332082612ae2565b915061332b83612ae2565b92508282039050818111156133435761334261324e565b5b92915050565b5f60408201905061335c5f830185612faa565b6133696020830184612b7e565b9392505050565b61337981612f77565b8114613383575f5ffd5b50565b5f8151905061339481613370565b92915050565b5f602082840312156133af576133ae612a80565b5b5f6133bc84828501613386565b91505092915050565b7f55534443207472616e73666572206661696c65640000000000000000000000005f82015250565b5f6133f9601483613120565b9150613404826133c5565b602082019050919050565b5f6020820190508181035f830152613426816133ed565b9050919050565b7f4e6f7420796f7572207461736b000000000000000000000000000000000000005f82015250565b5f613461600d83613120565b915061346c8261342d565b602082019050919050565b5f6020820190508181035f83015261348e81613455565b9050919050565b7f54686973207461736b20697320636c69636b2d6f6e6c79206d6f6465000000005f82015250565b5f6134c9601c83613120565b91506134d482613495565b602082019050919050565b5f6020820190508181035f8301526134f6816134bd565b9050919050565b7f57726f6e67204e464320746167000000000000000000000000000000000000005f82015250565b5f613531600d83613120565b915061353c826134fd565b602082019050919050565b5f6020820190508181035f83015261355e81613525565b9050919050565b5f6020820190506135785f83018461302c565b92915050565b7f416d6f756e74206d757374206265203e203000000000000000000000000000005f82015250565b5f6135b2601283613120565b91506135bd8261357e565b602082019050919050565b5f6020820190508181035f8301526135df816135a6565b9050919050565b7f496e73756666696369656e742062616c616e63650000000000000000000000005f82015250565b5f61361a601483613120565b9150613625826135e6565b602082019050919050565b5f6020820190508181035f8301526136478161360e565b9050919050565b7f42616c616e6365206c6f636b656420627920616374697665207461736b7300005f82015250565b5f613682601e83613120565b915061368d8261364e565b602082019050919050565b5f6020820190508181035f8301526136af81613676565b9050919050565b7f496e76616c6964205553444320616464726573730000000000000000000000005f82015250565b5f6136ea601483613120565b91506136f5826136b6565b602082019050919050565b5f6020820190508181035f830152613717816136de565b9050919050565b7f496e76616c6964207265636569766572000000000000000000000000000000005f82015250565b5f613752601083613120565b915061375d8261371e565b602082019050919050565b5f6020820190508181035f83015261377f81613746565b9050919050565b5f67ffffffffffffffff82169050919050565b6137a281613786565b82525050565b5f6020820190506137bb5f830184613799565b92915050565b5f6060820190506137d45f830186612faa565b6137e16020830185612faa565b6137ee6040830184612b7e565b949350505050565b7f54686973207461736b207265717569726573204e464320636865636b2d696e005f82015250565b5f61382a601f83613120565b9150613835826137f6565b602082019050919050565b5f6020820190508181035f8301526138578161381e565b9050919050565b5f6020820190506138715f83018461301d565b92915050565b7f546f6f206561726c7920746f20636865636b20696e00000000000000000000005f82015250565b5f6138ab601583613120565b91506138b682613877565b602082019050919050565b5f6020820190508181035f8301526138d88161389f565b9050919050565b7f57696e646f772065787069726564202d20746f6f206c617465000000000000005f82015250565b5f613913601983613120565b915061391e826138df565b602082019050919050565b5f6020820190508181035f83015261394081613907565b9050919050565b5f61395182612ae2565b91507fffffffffffffffffffffffffffffffffffffffffffffffffffffffffffffffff82036139835761398261324e565b5b600182019050919050565b7f546172676574206d75737420626520696e2066757475726500000000000000005f82015250565b5f6139c2601883613120565b91506139cd8261398e565b602082019050919050565b5f6020820190508181035f8301526139ef816139b6565b9050919050565b7f57696e646f77206d757374206265203e203000000000000000000000000000005f82015250565b5f613a2a601283613120565b9150613a35826139f6565b602082019050919050565b5f6020820190508181035f830152613a5781613a1e565b9050919050565b7f50656e616c7479206d757374206265203e2030000000000000000000000000005f82015250565b5f613a92601383613120565b9150613a9d82613a5e565b602082019050919050565b5f6020820190508181035f830152613abf81613a86565b9050919050565b7f496e73756666696369656e74206465706f73697420666f722070656e616c74795f82015250565b5f613afa602083613120565b9150613b0582613ac6565b602082019050919050565b5f6020820190508181035f830152613b2781613aee565b9050919050565b7f4e464320726571756972657320612076616c69642074616700000000000000005f82015250565b5f613b62601883613120565b9150613b6d82613b2e565b602082019050919050565b5f6020820190508181035f830152613b8f81613b56565b9050919050565b5f60a082019050613ba95f830188612b7e565b613bb66020830187612b7e565b613bc36040830186612b7e565b613bd0606083018561301d565b613bdd608083018461302c565b9695505050505050565b613bf081612f46565b8114613bfa575f5ffd5b50565b5f81519050613c0b81613be7565b92915050565b5f60208284031215613c2657613c25612a80565b5b5f613c3384828501613bfd565b9150509291505056fea2646970667358221220a93b4be6093bcdfbef43f52320a790daf3076dc4e1fdba1138f5b2ba650c2c1264736f6c63430008210033","linkReferences":{}},"methodIdentifiers":{"UPGRADE_INTERFACE_VERSION()":"ad3cb1cc","VERSION()":"ffa1ad74","availableBalance(address)":"a0821be3","balances(address)":"27e235e3","checkIn(uint256)":"e95a644f","checkInWithNFC(uint256,bytes4)":"21a15057","createSimpleTask(uint256,uint256,uint256)":"f10fbe33","createTask(uint256,uint256,uint256,uint8,bytes4)":"3b080d22","deposit(uint256)":"b6b55f25","initialize(address,address)":"485cc955","owner()":"8da5cb5b","pause()":"8456cb59","paused()":"5c975abb","penaltyReceiver()":"e1b7fd42","proxiableUUID()":"52d1902d","renounceOwnership()":"715018a6","setPenaltyReceiver(address)":"f0e59291","slash(address,uint256)":"02fb4d85","taskCount(address)":"082d1abb","tasks(address,uint256)":"7149d2e4","transferOwnership(address)":"f2fde38b","unpause()":"3f4ba83a","upgradeToAndCall(address,bytes)":"4f1ef286","usdc()":"3e413bee","withdraw(uint256)":"2e1a7d4d"},"id":40}